{
  "_format": "hh-sol-artifact-1",
  "contractName": "Web3RSVP",
  "sourceName": "contracts/Web3RSVP.sol",
  "abi": [
    {
      "anonymous": false,
      "inputs": [
        {
          "indexed": false,
          "internalType": "bytes32",
          "name": "eventID",
          "type": "bytes32"
        },
        {
          "indexed": false,
          "internalType": "address",
          "name": "attendeeAddress",
          "type": "address"
        }
      ],
      "name": "ConfirmedAttendee",
      "type": "event"
    },
    {
      "anonymous": false,
      "inputs": [
        {
          "indexed": false,
          "internalType": "bytes32",
          "name": "eventID",
          "type": "bytes32"
        }
      ],
      "name": "DepositsPaidOut",
      "type": "event"
    },
    {
      "anonymous": false,
      "inputs": [
        {
          "indexed": false,
          "internalType": "bytes32",
          "name": "eventID",
          "type": "bytes32"
        },
        {
          "indexed": false,
          "internalType": "address",
          "name": "creatorAddress",
          "type": "address"
        },
        {
          "indexed": false,
          "internalType": "uint256",
          "name": "eventTimestamp",
          "type": "uint256"
        },
        {
          "indexed": false,
          "internalType": "uint256",
          "name": "maxCapacity",
          "type": "uint256"
        },
        {
          "indexed": false,
          "internalType": "uint256",
          "name": "deposit",
          "type": "uint256"
        }
      ],
      "name": "NewEventCreated",
      "type": "event"
    },
    {
      "anonymous": false,
      "inputs": [
        {
          "indexed": false,
          "internalType": "bytes32",
          "name": "eventID",
          "type": "bytes32"
        },
        {
          "indexed": false,
          "internalType": "address",
          "name": "attendeeAddress",
          "type": "address"
        }
      ],
      "name": "NewRSVP",
      "type": "event"
    },
    {
      "inputs": [
        {
          "internalType": "bytes32",
          "name": "eventId",
          "type": "bytes32"
        },
        {
          "internalType": "address",
          "name": "attendee",
          "type": "address"
        }
      ],
      "name": "confirmAttendee",
      "outputs": [],
      "stateMutability": "nonpayable",
      "type": "function"
    },
    {
      "inputs": [
        {
          "internalType": "bytes32",
          "name": "eventId",
          "type": "bytes32"
        },
        {
          "internalType": "address[]",
          "name": "attendees",
          "type": "address[]"
        }
      ],
      "name": "confirmGroup",
      "outputs": [],
      "stateMutability": "nonpayable",
      "type": "function"
    },
    {
      "inputs": [
        {
          "internalType": "uint256",
          "name": "eventTimestamp",
          "type": "uint256"
        },
        {
          "internalType": "uint256",
          "name": "deposit",
          "type": "uint256"
        },
        {
          "internalType": "uint256",
          "name": "maxCapacity",
          "type": "uint256"
        }
      ],
      "name": "createNewEvent",
      "outputs": [],
      "stateMutability": "nonpayable",
      "type": "function"
    },
    {
      "inputs": [
        {
          "internalType": "bytes32",
          "name": "eventId",
          "type": "bytes32"
        }
      ],
      "name": "createNewRSVP",
      "outputs": [],
      "stateMutability": "payable",
      "type": "function"
    },
    {
      "inputs": [],
      "name": "createevent",
      "outputs": [
        {
          "internalType": "bytes32",
          "name": "eventId",
          "type": "bytes32"
        },
        {
          "internalType": "address",
          "name": "eventOwner",
          "type": "address"
        },
        {
          "internalType": "uint256",
          "name": "eventTimestamp",
          "type": "uint256"
        },
        {
          "internalType": "uint256",
          "name": "deposit",
          "type": "uint256"
        },
        {
          "internalType": "uint256",
          "name": "maxCapacity",
          "type": "uint256"
        },
        {
          "internalType": "bool",
          "name": "paidOut",
          "type": "bool"
        }
      ],
      "stateMutability": "view",
      "type": "function"
    },
    {
      "inputs": [
        {
          "internalType": "bytes32",
          "name": "",
          "type": "bytes32"
        }
      ],
      "name": "idToEvent",
      "outputs": [
        {
          "internalType": "bytes32",
          "name": "eventId",
          "type": "bytes32"
        },
        {
          "internalType": "address",
          "name": "eventOwner",
          "type": "address"
        },
        {
          "internalType": "uint256",
          "name": "eventTimestamp",
          "type": "uint256"
        },
        {
          "internalType": "uint256",
          "name": "deposit",
          "type": "uint256"
        },
        {
          "internalType": "uint256",
          "name": "maxCapacity",
          "type": "uint256"
        },
        {
          "internalType": "bool",
          "name": "paidOut",
          "type": "bool"
        }
      ],
      "stateMutability": "view",
      "type": "function"
    },
    {
      "inputs": [
        {
          "internalType": "bytes32",
          "name": "eventId",
          "type": "bytes32"
        }
      ],
      "name": "withdrawUnclaimedDeposits",
      "outputs": [],
      "stateMutability": "nonpayable",
      "type": "function"
    }
  ],
  "bytecode": "0x608060405234801561001057600080fd5b50611e54806100206000396000f3fe6080604052600436106100705760003560e01c8063797475711161004e57806379747571146100e35780638749b4141461010c578063909ef02114610135578063affb17551461017757610070565b80630d2e01981461007557806317f0165a1461009e5780636dcdf2cd146100ba575b600080fd5b34801561008157600080fd5b5061009c6004803603810190610097919061149a565b6101a7565b005b6100b860048036038101906100b39190611435565b610476565b005b3480156100c657600080fd5b506100e160048036038101906100dc919061145e565b610750565b005b3480156100ef57600080fd5b5061010a60048036038101906101059190611435565b610bca565b005b34801561011857600080fd5b50610133600480360381019061012e91906114f2565b610fa8565b005b34801561014157600080fd5b5061015c60048036038101906101579190611435565b611157565b60405161016e9695949392919061184d565b60405180910390f35b34801561018357600080fd5b5061018c6111c0565b60405161019e9695949392919061184d565b60405180910390f35b60006009600085815260200190815260200160002060405180610100016040529081600082015481526020016001820160009054906101000a900473ffffffffffffffffffffffffffffffffffffffff1673ffffffffffffffffffffffffffffffffffffffff1673ffffffffffffffffffffffffffffffffffffffff168152602001600282015481526020016003820154815260200160048201548152602001600582018054806020026020016040519081016040528092919081815260200182805480156102cb57602002820191906000526020600020905b8160009054906101000a900473ffffffffffffffffffffffffffffffffffffffff1673ffffffffffffffffffffffffffffffffffffffff1681526020019060010190808311610281575b505050505081526020016006820180548060200260200160405190810160405280929190818152602001828054801561035957602002820191906000526020600020905b8160009054906101000a900473ffffffffffffffffffffffffffffffffffffffff1673ffffffffffffffffffffffffffffffffffffffff168152602001906001019080831161030f575b505050505081526020016007820160009054906101000a900460ff1615151515815250509050806020015173ffffffffffffffffffffffffffffffffffffffff163373ffffffffffffffffffffffffffffffffffffffff16146103f1576040517f08c379a00000000000000000000000000000000000000000000000000000000081526004016103e8906119be565b60405180910390fd5b60005b838390508160ff16101561046f5761045c8585858460ff16818110610442577f4e487b7100000000000000000000000000000000000000000000000000000000600052603260045260246000fd5b9050602002016020810190610457919061140c565b610750565b808061046790611b9b565b9150506103f4565b5050505050565b6000600960008381526020019081526020016000209050806003015434146104d3576040517f08c379a00000000000000000000000000000000000000000000000000000000081526004016104ca9061193e565b60405180910390fd5b806002015442111561051a576040517f08c379a0000000000000000000000000000000000000000000000000000000008152600401610511906118de565b60405180910390fd5b8060040154816005018054905010610567576040517f08c379a000000000000000000000000000000000000000000000000000000000815260040161055e9061191e565b60405180910390fd5b60005b81600501805490508160ff161015610667573373ffffffffffffffffffffffffffffffffffffffff16826005018260ff16815481106105d2577f4e487b7100000000000000000000000000000000000000000000000000000000600052603260045260246000fd5b9060005260206000200160009054906101000a900473ffffffffffffffffffffffffffffffffffffffff1673ffffffffffffffffffffffffffffffffffffffff161415610654576040517f08c379a000000000000000000000000000000000000000000000000000000000815260040161064b906118fe565b60405180910390fd5b808061065f90611b9b565b91505061056a565b5080600501339080600181540180825580915050600190039060005260206000200160009091909190916101000a81548173ffffffffffffffffffffffffffffffffffffffff021916908373ffffffffffffffffffffffffffffffffffffffff1602179055506107136040518060400160405280601781526020017f4e45572052535650212120544f54414c2052535650533a0000000000000000008152508260050180549050611217565b7fb79f4240bbdd272d98e02a5db7f0cf156e5fc000961c517670a26eeeec63ed9082336040516107449291906117d1565b60405180910390a15050565b60006009600084815260200190815260200160002090508060010160009054906101000a900473ffffffffffffffffffffffffffffffffffffffff1673ffffffffffffffffffffffffffffffffffffffff163373ffffffffffffffffffffffffffffffffffffffff16146107f9576040517f08c379a00000000000000000000000000000000000000000000000000000000081526004016107f0906119be565b60405180910390fd5b600080600090505b82600501805490508160ff161015610930578373ffffffffffffffffffffffffffffffffffffffff16836005018260ff1681548110610869577f4e487b7100000000000000000000000000000000000000000000000000000000600052603260045260246000fd5b9060005260206000200160009054906101000a900473ffffffffffffffffffffffffffffffffffffffff1673ffffffffffffffffffffffffffffffffffffffff16141561091d57826005018160ff16815481106108ef577f4e487b7100000000000000000000000000000000000000000000000000000000600052603260045260246000fd5b9060005260206000200160009054906101000a900473ffffffffffffffffffffffffffffffffffffffff1691505b808061092890611b9b565b915050610801565b508273ffffffffffffffffffffffffffffffffffffffff168173ffffffffffffffffffffffffffffffffffffffff161461099f576040517f08c379a00000000000000000000000000000000000000000000000000000000081526004016109969061197e565b60405180910390fd5b60005b82600601805490508160ff161015610a69573373ffffffffffffffffffffffffffffffffffffffff16836006018260ff1681548110610a0a577f4e487b7100000000000000000000000000000000000000000000000000000000600052603260045260246000fd5b9060005260206000200160009054906101000a900473ffffffffffffffffffffffffffffffffffffffff1673ffffffffffffffffffffffffffffffffffffffff161415610a5657600080fd5b8080610a6190611b9b565b9150506109a2565b50600015158260070160009054906101000a900460ff16151514610a8c57600080fd5b81600601839080600181540180825580915050600190039060005260206000200160009091909190916101000a81548173ffffffffffffffffffffffffffffffffffffffff021916908373ffffffffffffffffffffffffffffffffffffffff16021790555060008373ffffffffffffffffffffffffffffffffffffffff168360030154604051610b1b906117a1565b60006040518083038185875af1925050503d8060008114610b58576040519150601f19603f3d011682016040523d82523d6000602084013e610b5d565b606091505b50509050610b8a604051806060016040528060258152602001611dfa602591398460060180549050611217565b7ff8d1583a733d83bdd3ef5464129d0a95a36d62b382d31c6d0467a61f4264381b8533604051610bbb9291906117d1565b60405180910390a15050505050565b60006009600083815260200190815260200160002060405180610100016040529081600082015481526020016001820160009054906101000a900473ffffffffffffffffffffffffffffffffffffffff1673ffffffffffffffffffffffffffffffffffffffff1673ffffffffffffffffffffffffffffffffffffffff16815260200160028201548152602001600382015481526020016004820154815260200160058201805480602002602001604051908101604052809291908181526020018280548015610cee57602002820191906000526020600020905b8160009054906101000a900473ffffffffffffffffffffffffffffffffffffffff1673ffffffffffffffffffffffffffffffffffffffff1681526020019060010190808311610ca4575b5050505050815260200160068201805480602002602001604051908101604052809291908181526020018280548015610d7c57602002820191906000526020600020905b8160009054906101000a900473ffffffffffffffffffffffffffffffffffffffff1673ffffffffffffffffffffffffffffffffffffffff1681526020019060010190808311610d32575b505050505081526020016007820160009054906101000a900460ff16151515158152505090508060e0015115610de7576040517f08c379a0000000000000000000000000000000000000000000000000000000008152600401610dde9061195e565b60405180910390fd5b62093a808160400151610dfa9190611a25565b421015610e3c576040517f08c379a0000000000000000000000000000000000000000000000000000000008152600401610e33906119de565b60405180910390fd5b806020015173ffffffffffffffffffffffffffffffffffffffff163373ffffffffffffffffffffffffffffffffffffffff1614610eae576040517f08c379a0000000000000000000000000000000000000000000000000000000008152600401610ea59061199e565b60405180910390fd5b60008160c00151518260a0015151610ec69190611ad5565b90506000826060015182610eda9190611a7b565b905060018360e001901515908115158152505060003373ffffffffffffffffffffffffffffffffffffffff1682604051610f13906117a1565b60006040518083038185875af1925050503d8060008114610f50576040519150601f19603f3d011682016040523d82523d6000602084013e610f55565b606091505b5050905080610f6a57600015158460e0015150505b7f393073ea1365f611c3d2f240c992960d2b99dc81715555d3fc40fc55ba80af9c85604051610f9991906117b6565b60405180910390a15050505050565b60003330858585604051602001610fc3959493929190611742565b6040516020818303038152906040528051906020012090506060806040518061010001604052808481526020013373ffffffffffffffffffffffffffffffffffffffff16815260200187815260200186815260200185815260200183815260200182815260200160001515815250600960008581526020019081526020016000206000820151816000015560208201518160010160006101000a81548173ffffffffffffffffffffffffffffffffffffffff021916908373ffffffffffffffffffffffffffffffffffffffff16021790555060408201518160020155606082015181600301556080820151816004015560a08201518160050190805190602001906110cf9291906112dc565b5060c08201518160060190805190602001906110ec9291906112dc565b5060e08201518160070160006101000a81548160ff0219169083151502179055509050507f16328b2fb78ccb08ae0f8bd67e16110217f9febd3baf27bc5cf29b022916c3e683338887896040516111479594939291906117fa565b60405180910390a1505050505050565b60096020528060005260406000206000915090508060000154908060010160009054906101000a900473ffffffffffffffffffffffffffffffffffffffff16908060020154908060030154908060040154908060070160009054906101000a900460ff16905086565b60018060000154908060010160009054906101000a900473ffffffffffffffffffffffffffffffffffffffff16908060020154908060030154908060040154908060070160009054906101000a900460ff16905086565b6112af828260405160240161122d9291906118ae565b6040516020818303038152906040527f9710a9d0000000000000000000000000000000000000000000000000000000007bffffffffffffffffffffffffffffffffffffffffffffffffffffffff19166020820180517bffffffffffffffffffffffffffffffffffffffffffffffffffffffff83818316178352505050506112b3565b5050565b60008151905060006a636f6e736f6c652e6c6f679050602083016000808483855afa5050505050565b828054828255906000526020600020908101928215611355579160200282015b828111156113545782518260006101000a81548173ffffffffffffffffffffffffffffffffffffffff021916908373ffffffffffffffffffffffffffffffffffffffff160217905550916020019190600101906112fc565b5b5090506113629190611366565b5090565b5b8082111561137f576000816000905550600101611367565b5090565b60008135905061139281611db4565b92915050565b60008083601f8401126113aa57600080fd5b8235905067ffffffffffffffff8111156113c357600080fd5b6020830191508360208202830111156113db57600080fd5b9250929050565b6000813590506113f181611dcb565b92915050565b60008135905061140681611de2565b92915050565b60006020828403121561141e57600080fd5b600061142c84828501611383565b91505092915050565b60006020828403121561144757600080fd5b6000611455848285016113e2565b91505092915050565b6000806040838503121561147157600080fd5b600061147f858286016113e2565b925050602061149085828601611383565b9150509250929050565b6000806000604084860312156114af57600080fd5b60006114bd868287016113e2565b935050602084013567ffffffffffffffff8111156114da57600080fd5b6114e686828701611398565b92509250509250925092565b60008060006060848603121561150757600080fd5b6000611515868287016113f7565b9350506020611526868287016113f7565b9250506040611537868287016113f7565b9150509250925092565b61154a81611b09565b82525050565b61156161155c82611b09565b611bc5565b82525050565b61157081611b1b565b82525050565b61157f81611b27565b82525050565b6000611590826119fe565b61159a8185611a14565b93506115aa818560208601611b68565b6115b381611c22565b840191505092915050565b60006115cb601083611a14565b91506115d682611c40565b602082019050919050565b60006115ee601183611a14565b91506115f982611c69565b602082019050919050565b6000611611601f83611a14565b915061161c82611c92565b602082019050919050565b6000611634600a83611a14565b915061163f82611cbb565b602082019050919050565b6000611657600c83611a14565b915061166282611ce4565b602082019050919050565b600061167a601283611a14565b915061168582611d0d565b602082019050919050565b600061169d600083611a09565b91506116a882611d36565b600082019050919050565b60006116c0601383611a14565b91506116cb82611d39565b602082019050919050565b60006116e3600e83611a14565b91506116ee82611d62565b602082019050919050565b6000611706600983611a14565b915061171182611d8b565b602082019050919050565b61172581611b51565b82525050565b61173c61173782611b51565b611be9565b82525050565b600061174e8288611550565b60148201915061175e8287611550565b60148201915061176e828661172b565b60208201915061177e828561172b565b60208201915061178e828461172b565b6020820191508190509695505050505050565b60006117ac82611690565b9150819050919050565b60006020820190506117cb6000830184611576565b92915050565b60006040820190506117e66000830185611576565b6117f36020830184611541565b9392505050565b600060a08201905061180f6000830188611576565b61181c6020830187611541565b611829604083018661171c565b611836606083018561171c565b611843608083018461171c565b9695505050505050565b600060c0820190506118626000830189611576565b61186f6020830188611541565b61187c604083018761171c565b611889606083018661171c565b611896608083018561171c565b6118a360a0830184611567565b979650505050505050565b600060408201905081810360008301526118c88185611585565b90506118d7602083018461171c565b9392505050565b600060208201905081810360008301526118f7816115be565b9050919050565b60006020820190508181036000830152611917816115e1565b9050919050565b6000602082019050818103600083015261193781611604565b9050919050565b6000602082019050818103600083015261195781611627565b9050919050565b600060208201905081810360008301526119778161164a565b9050919050565b600060208201905081810360008301526119978161166d565b9050919050565b600060208201905081810360008301526119b7816116b3565b9050919050565b600060208201905081810360008301526119d7816116d6565b9050919050565b600060208201905081810360008301526119f7816116f9565b9050919050565b600081519050919050565b600081905092915050565b600082825260208201905092915050565b6000611a3082611b51565b9150611a3b83611b51565b9250827fffffffffffffffffffffffffffffffffffffffffffffffffffffffffffffffff03821115611a7057611a6f611bf3565b5b828201905092915050565b6000611a8682611b51565b9150611a9183611b51565b9250817fffffffffffffffffffffffffffffffffffffffffffffffffffffffffffffffff0483118215151615611aca57611ac9611bf3565b5b828202905092915050565b6000611ae082611b51565b9150611aeb83611b51565b925082821015611afe57611afd611bf3565b5b828203905092915050565b6000611b1482611b31565b9050919050565b60008115159050919050565b6000819050919050565b600073ffffffffffffffffffffffffffffffffffffffff82169050919050565b6000819050919050565b600060ff82169050919050565b60005b83811015611b86578082015181840152602081019050611b6b565b83811115611b95576000848401525b50505050565b6000611ba682611b5b565b915060ff821415611bba57611bb9611bf3565b5b600182019050919050565b6000611bd082611bd7565b9050919050565b6000611be282611c33565b9050919050565b6000819050919050565b7f4e487b7100000000000000000000000000000000000000000000000000000000600052601160045260246000fd5b6000601f19601f8301169050919050565b60008160601b9050919050565b7f414c52454144592048415050454e454400000000000000000000000000000000600082015250565b7f414c524541445920434f4e4649524d4544000000000000000000000000000000600082015250565b7f54686973206576656e7420686173207265616368656420636170616369747900600082015250565b7f4e4f5420454e4f55474800000000000000000000000000000000000000000000600082015250565b7f414c524541445920504149440000000000000000000000000000000000000000600082015250565b7f4e4f205253565020544f20434f4e4649524d0000000000000000000000000000600082015250565b50565b7f4d555354204245204556454e54204f574e455200000000000000000000000000600082015250565b7f4e4f5420415554484f52495a4544000000000000000000000000000000000000600082015250565b7f544f4f204541524c590000000000000000000000000000000000000000000000600082015250565b611dbd81611b09565b8114611dc857600080fd5b50565b611dd481611b27565b8114611ddf57600080fd5b50565b611deb81611b51565b8114611df657600080fd5b5056fe415454454e44454520434f4e4649524d4544212120544f54414c20434f4e46494d5245443aa264697066735822122051e6a6650b2b63e282323f03d481caf65cd36b45e4bce6400b05d1d3efe97c1b64736f6c63430008040033",
  "linkReferences": {},
  "deployedLinkReferences": {}
}