{
  "_format": "hh-sol-artifact-1",
  "contractName": "Web3RSVP",
  "sourceName": "contracts/Web3RSVP.sol",
  "abi": [
    {
      "anonymous": false,
      "inputs": [
        {
          "indexed": false,
          "internalType": "bytes32",
          "name": "eventID",
          "type": "bytes32"
        },
        {
          "indexed": false,
          "internalType": "address",
          "name": "attendeeAddress",
          "type": "address"
        }
      ],
      "name": "ConfirmedAttendee",
      "type": "event"
    },
    {
      "anonymous": false,
      "inputs": [
        {
          "indexed": false,
          "internalType": "bytes32",
          "name": "eventID",
          "type": "bytes32"
        }
      ],
      "name": "DepositsPaidOut",
      "type": "event"
    },
    {
      "anonymous": false,
      "inputs": [
        {
          "indexed": false,
          "internalType": "bytes32",
          "name": "eventID",
          "type": "bytes32"
        },
        {
          "indexed": false,
          "internalType": "address",
          "name": "creatorAddress",
          "type": "address"
        },
        {
          "indexed": false,
          "internalType": "uint256",
          "name": "eventTimestamp",
          "type": "uint256"
        },
        {
          "indexed": false,
          "internalType": "uint256",
          "name": "maxCapacity",
          "type": "uint256"
        },
        {
          "indexed": false,
          "internalType": "uint256",
          "name": "deposit",
          "type": "uint256"
        },
        {
          "indexed": false,
          "internalType": "string",
          "name": "eventName",
          "type": "string"
        }
      ],
      "name": "NewEventCreated",
      "type": "event"
    },
    {
      "anonymous": false,
      "inputs": [
        {
          "indexed": false,
          "internalType": "bytes32",
          "name": "eventID",
          "type": "bytes32"
        },
        {
          "indexed": false,
          "internalType": "address",
          "name": "attendeeAddress",
          "type": "address"
        }
      ],
      "name": "NewRSVP",
      "type": "event"
    },
    {
      "inputs": [
        {
          "internalType": "bytes32",
          "name": "eventId",
          "type": "bytes32"
        },
        {
          "internalType": "address",
          "name": "attendee",
          "type": "address"
        }
      ],
      "name": "confirmAttendee",
      "outputs": [],
      "stateMutability": "nonpayable",
      "type": "function"
    },
    {
      "inputs": [
        {
          "internalType": "bytes32",
          "name": "eventId",
          "type": "bytes32"
        },
        {
          "internalType": "address[]",
          "name": "attendees",
          "type": "address[]"
        }
      ],
      "name": "confirmGroup",
      "outputs": [],
      "stateMutability": "nonpayable",
      "type": "function"
    },
    {
      "inputs": [
        {
          "internalType": "uint256",
          "name": "eventTimestamp",
          "type": "uint256"
        },
        {
          "internalType": "uint256",
          "name": "deposit",
          "type": "uint256"
        },
        {
          "internalType": "uint256",
          "name": "maxCapacity",
          "type": "uint256"
        },
        {
          "internalType": "string",
          "name": "eventName",
          "type": "string"
        }
      ],
      "name": "createNewEvent",
      "outputs": [],
      "stateMutability": "nonpayable",
      "type": "function"
    },
    {
      "inputs": [
        {
          "internalType": "bytes32",
          "name": "eventId",
          "type": "bytes32"
        }
      ],
      "name": "createNewRSVP",
      "outputs": [],
      "stateMutability": "payable",
      "type": "function"
    },
    {
      "inputs": [
        {
          "internalType": "bytes32",
          "name": "",
          "type": "bytes32"
        }
      ],
      "name": "idToEvent",
      "outputs": [
        {
          "internalType": "bytes32",
          "name": "eventId",
          "type": "bytes32"
        },
        {
          "internalType": "string",
          "name": "eventName",
          "type": "string"
        },
        {
          "internalType": "address",
          "name": "eventOwner",
          "type": "address"
        },
        {
          "internalType": "uint256",
          "name": "eventTimestamp",
          "type": "uint256"
        },
        {
          "internalType": "uint256",
          "name": "deposit",
          "type": "uint256"
        },
        {
          "internalType": "uint256",
          "name": "maxCapacity",
          "type": "uint256"
        },
        {
          "internalType": "bool",
          "name": "paidOut",
          "type": "bool"
        }
      ],
      "stateMutability": "view",
      "type": "function"
    },
    {
      "inputs": [
        {
          "internalType": "bytes32",
          "name": "eventId",
          "type": "bytes32"
        }
      ],
      "name": "withdrawUnclaimedDeposits",
      "outputs": [],
      "stateMutability": "nonpayable",
      "type": "function"
    }
  ],
  "bytecode": "0x608060405234801561001057600080fd5b50612504806100206000396000f3fe6080604052600436106100545760003560e01c806292098c146100595780630d2e01981461008257806317f0165a146100ab5780636dcdf2cd146100c757806379747571146100f0578063909ef02114610119575b600080fd5b34801561006557600080fd5b50610080600480360381019061007b91906119ea565b61015c565b005b34801561008e57600080fd5b506100a960048036038101906100a49190611992565b610378565b005b6100c560048036038101906100c0919061192d565b6106d8565b005b3480156100d357600080fd5b506100ee60048036038101906100e99190611956565b6109b1565b005b3480156100fc57600080fd5b506101176004803603810190610112919061192d565b610edf565b005b34801561012557600080fd5b50610140600480360381019061013b919061192d565b611413565b6040516101539796959493929190611ddd565b60405180910390f35b60003330878787604051602001610177959493929190611cbb565b60405160208183030381529060405280519060200120905060608060405180610120016040528084815260200186868080601f016020809104026020016040519081016040528093929190818152602001838380828437600081840152601f19601f8201169050808301925050505050505081526020013373ffffffffffffffffffffffffffffffffffffffff16815260200189815260200188815260200187815260200183815260200182815260200160001515815250600080858152602001908152602001600020600082015181600001556020820151816001019080519060200190610267929190611704565b5060408201518160020160006101000a81548173ffffffffffffffffffffffffffffffffffffffff021916908373ffffffffffffffffffffffffffffffffffffffff160217905550606082015181600301556080820151816004015560a0820151816005015560c08201518160060190805190602001906102e992919061178a565b5060e082015181600701908051906020019061030692919061178a565b506101008201518160080160006101000a81548160ff0219169083151502179055509050507f2553138c3f9c9008f266dbdbe9fc64f5b71e098d06ef714a190a65a8b9fc6bf383338a898b8a8a6040516103669796959493929190611d73565b60405180910390a15050505050505050565b600080600085815260200190815260200160002060405180610120016040529081600082015481526020016001820180546103b2906121c1565b80601f01602080910402602001604051908101604052809291908181526020018280546103de906121c1565b801561042b5780601f106104005761010080835404028352916020019161042b565b820191906000526020600020905b81548152906001019060200180831161040e57829003601f168201915b505050505081526020016002820160009054906101000a900473ffffffffffffffffffffffffffffffffffffffff1673ffffffffffffffffffffffffffffffffffffffff1673ffffffffffffffffffffffffffffffffffffffff1681526020016003820154815260200160048201548152602001600582015481526020016006820180548060200260200160405190810160405280929190818152602001828054801561052d57602002820191906000526020600020905b8160009054906101000a900473ffffffffffffffffffffffffffffffffffffffff1673ffffffffffffffffffffffffffffffffffffffff16815260200190600101908083116104e3575b50505050508152602001600782018054806020026020016040519081016040528092919081815260200182805480156105bb57602002820191906000526020600020905b8160009054906101000a900473ffffffffffffffffffffffffffffffffffffffff1673ffffffffffffffffffffffffffffffffffffffff1681526020019060010190808311610571575b505050505081526020016008820160009054906101000a900460ff1615151515815250509050806040015173ffffffffffffffffffffffffffffffffffffffff163373ffffffffffffffffffffffffffffffffffffffff1614610653576040517f08c379a000000000000000000000000000000000000000000000000000000000815260040161064a90611fd5565b60405180910390fd5b60005b838390508160ff1610156106d1576106be8585858460ff168181106106a4577f4e487b7100000000000000000000000000000000000000000000000000000000600052603260045260246000fd5b90506020020160208101906106b99190611904565b6109b1565b80806106c9906121f3565b915050610656565b5050505050565b6000806000838152602001908152602001600020905080600401543414610734576040517f08c379a000000000000000000000000000000000000000000000000000000000815260040161072b90611f55565b60405180910390fd5b806003015442111561077b576040517f08c379a000000000000000000000000000000000000000000000000000000000815260040161077290611ef5565b60405180910390fd5b80600501548160060180549050106107c8576040517f08c379a00000000000000000000000000000000000000000000000000000000081526004016107bf90611f35565b60405180910390fd5b60005b81600601805490508160ff1610156108c8573373ffffffffffffffffffffffffffffffffffffffff16826006018260ff1681548110610833577f4e487b7100000000000000000000000000000000000000000000000000000000600052603260045260246000fd5b9060005260206000200160009054906101000a900473ffffffffffffffffffffffffffffffffffffffff1673ffffffffffffffffffffffffffffffffffffffff1614156108b5576040517f08c379a00000000000000000000000000000000000000000000000000000000081526004016108ac90611f15565b60405180910390fd5b80806108c0906121f3565b9150506107cb565b5080600601339080600181540180825580915050600190039060005260206000200160009091909190916101000a81548173ffffffffffffffffffffffffffffffffffffffff021916908373ffffffffffffffffffffffffffffffffffffffff1602179055506109746040518060400160405280601781526020017f4e45572052535650212120544f54414c2052535650533a000000000000000000815250826006018054905061150a565b7fb79f4240bbdd272d98e02a5db7f0cf156e5fc000961c517670a26eeeec63ed9082336040516109a5929190611d4a565b60405180910390a15050565b600080600084815260200190815260200160002090508060020160009054906101000a900473ffffffffffffffffffffffffffffffffffffffff1673ffffffffffffffffffffffffffffffffffffffff163373ffffffffffffffffffffffffffffffffffffffff1614610a59576040517f08c379a0000000000000000000000000000000000000000000000000000000008152600401610a5090611fd5565b60405180910390fd5b600080600090505b82600601805490508160ff161015610b90578373ffffffffffffffffffffffffffffffffffffffff16836006018260ff1681548110610ac9577f4e487b7100000000000000000000000000000000000000000000000000000000600052603260045260246000fd5b9060005260206000200160009054906101000a900473ffffffffffffffffffffffffffffffffffffffff1673ffffffffffffffffffffffffffffffffffffffff161415610b7d57826006018160ff1681548110610b4f577f4e487b7100000000000000000000000000000000000000000000000000000000600052603260045260246000fd5b9060005260206000200160009054906101000a900473ffffffffffffffffffffffffffffffffffffffff1691505b8080610b88906121f3565b915050610a61565b508273ffffffffffffffffffffffffffffffffffffffff168173ffffffffffffffffffffffffffffffffffffffff1614610bff576040517f08c379a0000000000000000000000000000000000000000000000000000000008152600401610bf690611f95565b60405180910390fd5b60005b82600701805490508160ff161015610cc9573373ffffffffffffffffffffffffffffffffffffffff16836007018260ff1681548110610c6a577f4e487b7100000000000000000000000000000000000000000000000000000000600052603260045260246000fd5b9060005260206000200160009054906101000a900473ffffffffffffffffffffffffffffffffffffffff1673ffffffffffffffffffffffffffffffffffffffff161415610cb657600080fd5b8080610cc1906121f3565b915050610c02565b50600015158260080160009054906101000a900460ff16151514610cec57600080fd5b81600701839080600181540180825580915050600190039060005260206000200160009091909190916101000a81548173ffffffffffffffffffffffffffffffffffffffff021916908373ffffffffffffffffffffffffffffffffffffffff16021790555060008373ffffffffffffffffffffffffffffffffffffffff168360040154604051610d7b90611d1a565b60006040518083038185875af1925050503d8060008114610db8576040519150601f19603f3d011682016040523d82523d6000602084013e610dbd565b606091505b5050905080610e01576040517f08c379a0000000000000000000000000000000000000000000000000000000008152600401610df890611ed5565b60405180910390fd5b80610e765782600701805480610e40577f4e487b7100000000000000000000000000000000000000000000000000000000600052603160045260246000fd5b6001900381819060005260206000200160006101000a81549073ffffffffffffffffffffffffffffffffffffffff021916905590555b610e9f6040518060600160405280602581526020016124aa60259139846007018054905061150a565b7ff8d1583a733d83bdd3ef5464129d0a95a36d62b382d31c6d0467a61f4264381b8533604051610ed0929190611d4a565b60405180910390a15050505050565b610f1d6040518060400160405280601181526020017f474f494e4720544f2057495448445241570000000000000000000000000000008152506115a6565b60008060008381526020019081526020016000206040518061012001604052908160008201548152602001600182018054610f57906121c1565b80601f0160208091040260200160405190810160405280929190818152602001828054610f83906121c1565b8015610fd05780601f10610fa557610100808354040283529160200191610fd0565b820191906000526020600020905b815481529060010190602001808311610fb357829003601f168201915b505050505081526020016002820160009054906101000a900473ffffffffffffffffffffffffffffffffffffffff1673ffffffffffffffffffffffffffffffffffffffff1673ffffffffffffffffffffffffffffffffffffffff168152602001600382015481526020016004820154815260200160058201548152602001600682018054806020026020016040519081016040528092919081815260200182805480156110d257602002820191906000526020600020905b8160009054906101000a900473ffffffffffffffffffffffffffffffffffffffff1673ffffffffffffffffffffffffffffffffffffffff1681526020019060010190808311611088575b505050505081526020016007820180548060200260200160405190810160405280929190818152602001828054801561116057602002820191906000526020600020905b8160009054906101000a900473ffffffffffffffffffffffffffffffffffffffff1673ffffffffffffffffffffffffffffffffffffffff1681526020019060010190808311611116575b505050505081526020016008820160009054906101000a900460ff1615151515815250509050806101000151156111cc576040517f08c379a00000000000000000000000000000000000000000000000000000000081526004016111c390611f75565b60405180910390fd5b62093a8081606001516111df919061203c565b421015611221576040517f08c379a000000000000000000000000000000000000000000000000000000000815260040161121890611ff5565b60405180910390fd5b806040015173ffffffffffffffffffffffffffffffffffffffff163373ffffffffffffffffffffffffffffffffffffffff1614611293576040517f08c379a000000000000000000000000000000000000000000000000000000000815260040161128a90611fb5565b60405180910390fd5b60008160e00151518260c00151516112ab91906120ec565b905060008260800151826112bf9190612092565b905060018361010001901515908115158152505060003373ffffffffffffffffffffffffffffffffffffffff16826040516112f990611d1a565b60006040518083038185875af1925050503d8060008114611336576040519150601f19603f3d011682016040523d82523d6000602084013e61133b565b606091505b505090508061137f576040517f08c379a000000000000000000000000000000000000000000000000000000000815260040161137690611ed5565b60405180910390fd5b80611391576000151584610100015150505b6113d56040518060400160405280600981526020017f50414944204f555421000000000000000000000000000000000000000000000081525085610100015161163f565b7f393073ea1365f611c3d2f240c992960d2b99dc81715555d3fc40fc55ba80af9c856040516114049190611d2f565b60405180910390a15050505050565b600060205280600052604060002060009150905080600001549080600101805461143c906121c1565b80601f0160208091040260200160405190810160405280929190818152602001828054611468906121c1565b80156114b55780601f1061148a576101008083540402835291602001916114b5565b820191906000526020600020905b81548152906001019060200180831161149857829003601f168201915b5050505050908060020160009054906101000a900473ffffffffffffffffffffffffffffffffffffffff16908060030154908060040154908060050154908060080160009054906101000a900460ff16905087565b6115a28282604051602401611520929190611ea5565b6040516020818303038152906040527f9710a9d0000000000000000000000000000000000000000000000000000000007bffffffffffffffffffffffffffffffffffffffffffffffffffffffff19166020820180517bffffffffffffffffffffffffffffffffffffffffffffffffffffffff83818316178352505050506116db565b5050565b61163c816040516024016115ba9190611e53565b6040516020818303038152906040527f41304fac000000000000000000000000000000000000000000000000000000007bffffffffffffffffffffffffffffffffffffffffffffffffffffffff19166020820180517bffffffffffffffffffffffffffffffffffffffffffffffffffffffff83818316178352505050506116db565b50565b6116d78282604051602401611655929190611e75565b6040516020818303038152906040527fc3b55635000000000000000000000000000000000000000000000000000000007bffffffffffffffffffffffffffffffffffffffffffffffffffffffff19166020820180517bffffffffffffffffffffffffffffffffffffffffffffffffffffffff83818316178352505050506116db565b5050565b60008151905060006a636f6e736f6c652e6c6f679050602083016000808483855afa5050505050565b828054611710906121c1565b90600052602060002090601f0160209004810192826117325760008555611779565b82601f1061174b57805160ff1916838001178555611779565b82800160010185558215611779579182015b8281111561177857825182559160200191906001019061175d565b5b5090506117869190611814565b5090565b828054828255906000526020600020908101928215611803579160200282015b828111156118025782518260006101000a81548173ffffffffffffffffffffffffffffffffffffffff021916908373ffffffffffffffffffffffffffffffffffffffff160217905550916020019190600101906117aa565b5b5090506118109190611814565b5090565b5b8082111561182d576000816000905550600101611815565b5090565b60008135905061184081612464565b92915050565b60008083601f84011261185857600080fd5b8235905067ffffffffffffffff81111561187157600080fd5b60208301915083602082028301111561188957600080fd5b9250929050565b60008135905061189f8161247b565b92915050565b60008083601f8401126118b757600080fd5b8235905067ffffffffffffffff8111156118d057600080fd5b6020830191508360018202830111156118e857600080fd5b9250929050565b6000813590506118fe81612492565b92915050565b60006020828403121561191657600080fd5b600061192484828501611831565b91505092915050565b60006020828403121561193f57600080fd5b600061194d84828501611890565b91505092915050565b6000806040838503121561196957600080fd5b600061197785828601611890565b925050602061198885828601611831565b9150509250929050565b6000806000604084860312156119a757600080fd5b60006119b586828701611890565b935050602084013567ffffffffffffffff8111156119d257600080fd5b6119de86828701611846565b92509250509250925092565b600080600080600060808688031215611a0257600080fd5b6000611a10888289016118ef565b9550506020611a21888289016118ef565b9450506040611a32888289016118ef565b935050606086013567ffffffffffffffff811115611a4f57600080fd5b611a5b888289016118a5565b92509250509295509295909350565b611a7381612120565b82525050565b611a8a611a8582612120565b61221d565b82525050565b611a9981612132565b82525050565b611aa88161213e565b82525050565b6000611aba838561202b565b9350611ac783858461217f565b611ad0836122a9565b840190509392505050565b6000611ae682612015565b611af0818561202b565b9350611b0081856020860161218e565b611b09816122a9565b840191505092915050565b6000611b2160148361202b565b9150611b2c826122c7565b602082019050919050565b6000611b4460108361202b565b9150611b4f826122f0565b602082019050919050565b6000611b6760118361202b565b9150611b7282612319565b602082019050919050565b6000611b8a601f8361202b565b9150611b9582612342565b602082019050919050565b6000611bad600a8361202b565b9150611bb88261236b565b602082019050919050565b6000611bd0600c8361202b565b9150611bdb82612394565b602082019050919050565b6000611bf360128361202b565b9150611bfe826123bd565b602082019050919050565b6000611c16600083612020565b9150611c21826123e6565b600082019050919050565b6000611c3960138361202b565b9150611c44826123e9565b602082019050919050565b6000611c5c600e8361202b565b9150611c6782612412565b602082019050919050565b6000611c7f60098361202b565b9150611c8a8261243b565b602082019050919050565b611c9e81612168565b82525050565b611cb5611cb082612168565b612241565b82525050565b6000611cc78288611a79565b601482019150611cd78287611a79565b601482019150611ce78286611ca4565b602082019150611cf78285611ca4565b602082019150611d078284611ca4565b6020820191508190509695505050505050565b6000611d2582611c09565b9150819050919050565b6000602082019050611d446000830184611a9f565b92915050565b6000604082019050611d5f6000830185611a9f565b611d6c6020830184611a6a565b9392505050565b600060c082019050611d88600083018a611a9f565b611d956020830189611a6a565b611da26040830188611c95565b611daf6060830187611c95565b611dbc6080830186611c95565b81810360a0830152611dcf818486611aae565b905098975050505050505050565b600060e082019050611df2600083018a611a9f565b8181036020830152611e048189611adb565b9050611e136040830188611a6a565b611e206060830187611c95565b611e2d6080830186611c95565b611e3a60a0830185611c95565b611e4760c0830184611a90565b98975050505050505050565b60006020820190508181036000830152611e6d8184611adb565b905092915050565b60006040820190508181036000830152611e8f8185611adb565b9050611e9e6020830184611a90565b9392505050565b60006040820190508181036000830152611ebf8185611adb565b9050611ece6020830184611c95565b9392505050565b60006020820190508181036000830152611eee81611b14565b9050919050565b60006020820190508181036000830152611f0e81611b37565b9050919050565b60006020820190508181036000830152611f2e81611b5a565b9050919050565b60006020820190508181036000830152611f4e81611b7d565b9050919050565b60006020820190508181036000830152611f6e81611ba0565b9050919050565b60006020820190508181036000830152611f8e81611bc3565b9050919050565b60006020820190508181036000830152611fae81611be6565b9050919050565b60006020820190508181036000830152611fce81611c2c565b9050919050565b60006020820190508181036000830152611fee81611c4f565b9050919050565b6000602082019050818103600083015261200e81611c72565b9050919050565b600081519050919050565b600081905092915050565b600082825260208201905092915050565b600061204782612168565b915061205283612168565b9250827fffffffffffffffffffffffffffffffffffffffffffffffffffffffffffffffff038211156120875761208661224b565b5b828201905092915050565b600061209d82612168565b91506120a883612168565b9250817fffffffffffffffffffffffffffffffffffffffffffffffffffffffffffffffff04831182151516156120e1576120e061224b565b5b828202905092915050565b60006120f782612168565b915061210283612168565b9250828210156121155761211461224b565b5b828203905092915050565b600061212b82612148565b9050919050565b60008115159050919050565b6000819050919050565b600073ffffffffffffffffffffffffffffffffffffffff82169050919050565b6000819050919050565b600060ff82169050919050565b82818337600083830152505050565b60005b838110156121ac578082015181840152602081019050612191565b838111156121bb576000848401525b50505050565b600060028204905060018216806121d957607f821691505b602082108114156121ed576121ec61227a565b5b50919050565b60006121fe82612172565b915060ff8214156122125761221161224b565b5b600182019050919050565b60006122288261222f565b9050919050565b600061223a826122ba565b9050919050565b6000819050919050565b7f4e487b7100000000000000000000000000000000000000000000000000000000600052601160045260246000fd5b7f4e487b7100000000000000000000000000000000000000000000000000000000600052602260045260246000fd5b6000601f19601f8301169050919050565b60008160601b9050919050565b7f4661696c656420746f2073656e64204574686572000000000000000000000000600082015250565b7f414c52454144592048415050454e454400000000000000000000000000000000600082015250565b7f414c524541445920434f4e4649524d4544000000000000000000000000000000600082015250565b7f54686973206576656e7420686173207265616368656420636170616369747900600082015250565b7f4e4f5420454e4f55474800000000000000000000000000000000000000000000600082015250565b7f414c524541445920504149440000000000000000000000000000000000000000600082015250565b7f4e4f205253565020544f20434f4e4649524d0000000000000000000000000000600082015250565b50565b7f4d555354204245204556454e54204f574e455200000000000000000000000000600082015250565b7f4e4f5420415554484f52495a4544000000000000000000000000000000000000600082015250565b7f544f4f204541524c590000000000000000000000000000000000000000000000600082015250565b61246d81612120565b811461247857600080fd5b50565b6124848161213e565b811461248f57600080fd5b50565b61249b81612168565b81146124a657600080fd5b5056fe415454454e44454520434f4e4649524d4544212120544f54414c20434f4e46494d5245443aa2646970667358221220affa5f76f7a47f936936785cc6628e4e1f8f28f428db7dfbcadbf7fcd94cb69764736f6c63430008040033",
  "linkReferences": {},
  "deployedLinkReferences": {}
}